:100000000C9498000C94C0000C94C0000C94C00098
:100010000C94C0000C94C0000C94C0000C94C00060
:100020000C94C0000C94C0000C94C0000C94C00050
:100030000C94C0000C94C0000C94C0000C94C00040
:100040000C949D020C94C0000C940D030C94E702D8
:100050000C94C0000C94C0000C94C0000C94C00020
:100060000C94C0000C94C0000C943F030C943F030C
:100070000C943F030C943F030C943F030C943F03F8
:100080000C943F030C943F030C943F030C943F03E8
:100090000C943F030C943F030C943F030C943F03D8
:1000A0000C943F030C943F030C943F030C943F03C8
:1000B0000C943F03E400E700DA00DE0008010801C9
:1000C000EB00EF00F500F9000801FF00030100005C
:1000D0000000240027002A002D0000000000250059
:1000E00028002B002E00040404040404040402026B
:1000F00002020202030303030303050505050102CF
:1001000004081020408001020408102001020408A5
:10011000102004080102090C0A0800020100000373
:1001200004070000000000000000000000000F04B1
:1001300011241FBECFEFD8E0DEBFCDBF11E0A0E09D
:10014000B1E0E2E9F8E002C005900D92A631B107F6
:10015000D9F721E0A6E1B1E001C01D92AC3BB207A6
:10016000E1F710E0C8E9D0E004C02197FE010E9449
:100170003C04C739D107C9F70E9441030C944704D6
:100180000C940000ECE1F1E04491E4E0F1E0249112
:10019000ECEEF0E09491992309F44EC04423C1F1B0
:1001A00050E0FA013197ED30F10590F5E65AFF4F36
:1001B0000C943C04309180003F7703C03091800064
:1001C0003F7D3093800024C034B53F7702C034B502
:1001D0003F7D34BD1DC03091B0003F7703C03091EA
:1001E000B0003F7D3093B00013C0309190003F7756
:1001F00003C0309190003F7D3093900009C0309152
:10020000A0003F7703C03091A0003F7D3093A00055
:10021000E92FF0E0EE0FFF1FE652FF4FA591B491DA
:100220009FB7F894811104C08C912095282302C0B7
:10023000EC912E2B2C939FBF08953FB7F89480919B
:10024000B8019091B901A091BA01B091BB0126B556
:10025000A89B05C02F3F19F00196A11DB11D3FBFFE
:10026000BA2FA92F982F8827820F911DA11DB11D8C
:10027000BC01CD0143E0660F771F881F991F4A9587
:10028000D1F708958F929F92AF92BF92CF92DF9253
:10029000EF92FF920E941D014B015C0188EEC82E77
:1002A00083E0D82EE12CF12C0E941D01DC01CB0152
:1002B00088199909AA09BB09883E9340A105B1058F
:1002C00098F321E0C21AD108E108F10888EE880EFF
:1002D00083E0981EA11CB11CC114D104E104F104F7
:1002E00019F7FF90EF90DF90CF90BF90AF909F9065
:1002F0008F900895CF92DF92EF92FF920F931F930A
:10030000CF93DF936C017A018B01C0E0D0E0CE1572
:10031000DF0581F0D8016D918D01D601ED91FC9141
:100320000190F081E02DC6010995892B11F02196ED
:10033000EECF7E01C701DF91CF911F910F91FF900A
:10034000EF90DF90CF900895089580E090E00895B9
:10035000FC01538D448D252F30E0842F90E0821BCB
:10036000930B541710F0CF96089501970895FC0150
:10037000918D828D981761F0828DDF01A80FB11DDC
:100380005D968C91928D9F5F9F73928F90E0089500
:100390008FEF9FEF0895FC01918D828D981731F0BA
:1003A000828DE80FF11D858D90E008958FEF9FEF0E
:1003B0000895FC01918D228D892F90E0805C9F4FE4
:1003C000821B91098F739927089586E191E00E941D
:1003D000D90121E0892B09F420E0822F0895FC0146
:1003E000848DDF01A80FB11DA35ABF4F2C91848DBE
:1003F00090E001968F739927848FA689B7892C93F3
:10040000A089B1898C91837080648C93938D848D45
:10041000981306C00288F389E02D80818F7D808348
:100420000895EF92FF920F931F93CF93DF93EC0108
:1004300081E0888F9B8D8C8D981305C0E889F989A0
:10044000808185FD26C0F62E0B8D10E00F5F1F4FBB
:100450000F731127E02E8C8DE8120CC00FB607FC2D
:10046000FACFE889F989808185FFF5CFCE010E9416
:10047000EF01F1CF8B8DFE01E80FF11DE35AFF4F25
:10048000F0829FB7F8940B8FEA89FB8980818062A4
:100490000AC09FB7F894EE89FF896083E889F989DB
:1004A00080818370806480839FBF81E090E0DF91D2
:1004B000CF911F910F91FF90EF900895CF93DF930D
:1004C000EC01888D8823C9F0EA89FB89808185FD4C
:1004D00005C0A889B9898C9186FD0FC00FB607FCAD
:1004E000F5CF808185FFF2CFA889B9898C9185FFEE
:1004F000EDCFCE010E94EF01E7CFDF91CF910895BC
:1005000080E090E0892B21F00E94E50181110DC06F
:1005100080E090E0892B71F080E090E0892B51F031
:100520000E940000811104C008950E940000F0CFD5
:100530000C94000008950E9442041F920F920FB67F
:100540000F9211242F933F938F939F93AF93BF9359
:100550008091B4019091B501A091B601B091B7011D
:100560003091B30126E0230F2D3720F40296A11D10
:10057000B11D05C029E8230F0396A11DB11D2093CD
:10058000B3018093B4019093B501A093B601B093E9
:10059000B7018091B8019091B901A091BA01B091D1
:1005A000BB010196A11DB11D8093B8019093B901C3
:1005B000A093BA01B093BB01BF91AF919F918F916E
:1005C0003F912F910F900FBE0F901F9018951F9283
:1005D0000F920FB60F9211242F933F934F935F9377
:1005E0006F937F938F939F93AF93BF93EF93FF93FB
:1005F00086E191E00E94EF01FF91EF91BF91AF91F1
:100600009F918F917F916F915F914F913F912F912A
:100610000F900FBE0F901F9018951F920F920FB65C
:100620000F9211242F938F939F93EF93FF93E09159
:100630002601F09127018081E0912C01F0912D019C
:1006400082FD12C0908180912F018F5F8F73209166
:100650003001821751F0E0912F01F0E0EA5EFE4F89
:10066000958F80932F0101C08081FF91EF919F9121
:100670008F912F910F900FBE0F901F9018950C9493
:10068000C000789484B5826084BD84B5816084BDE7
:1006900085B5826085BD85B5816085BD80916E0020
:1006A000816080936E001092810080918100826051
:1006B000809381008091810081608093810080918E
:1006C00080008160809380008091B100846080937D
:1006D000B1008091B00081608093B0008091910062
:1006E000826080939100809191008160809391005D
:1006F000809190008160809390008091A100826041
:100700008093A1008091A10081608093A1008091DD
:10071000A00081608093A00080917A008460809323
:100720007A0080917A00826080937A0080917A00CA
:100730008E7F80937A0080917A00806880937A001F
:100740001092C100E4E0F1E02491ECEEF0E084913D
:10075000882399F090E0880F991FFC01E253FF4F26
:10076000A591B491FC01E652FF4F859194918FB70A
:10077000F894EC91E22BEC938FBFE0912601F0917D
:10078000270182E08083E0912201F0912301108211
:10079000E0912401F091250188E0808310922E01E0
:1007A000E0912A01F0912B0186E08083E0912801FD
:1007B000F0912901808180618083E0912801F0918E
:1007C0002901808188608083E0912801F0912901CE
:1007D000808180688083E0912801F09129018081E7
:1007E0008F7D808341E050E062E171E086E191E03D
:1007F0000E947A0181E00E94C2000E94420180E0D2
:100800000E94C2000E94420141E050E064E171E0B8
:1008100086E191E00E947A010E948002EBCFE6E13E
:10082000F1E01382128288EE93E0A0E0B0E08483CE
:100830009583A683B78384E091E09183808385ECE0
:1008400090E09587848784EC90E09787868780EC9A
:1008500090E0918B808B81EC90E0938B828B82EC8B
:1008600090E0958B848B86EC90E0978B868B118E35
:10087000128E138E148E0895EE0FFF1F0590F491C3
:10088000E02D099481E090E0F8940C944704F894EA
:02089000FFCF98
:100892000000000011027A01A8015E02D901B7012D
:0608A200CB0156002B0003
:10780000112484B714BE85E080938100589A82E0E9
:107810008093C00088E18093C10086E08093C2001D
:1078200080E18093C400209A289A579A5F9A8EE04C
:10783000BDD0569A86E028E13EEF91E03093850076
:107840002093840096BBB09BFECF4E9AA8958150A2
:10785000A9F7CC24DD2488248394B5E0AB2EA1E1E4
:107860009A2EF3E0BF2EADD0813461F4AAD0082F58
:10787000D1D0023811F0013811F484E001C083E066
:107880008DD089C0823411F484E103C0853419F4A9
:1078900085E0C8D080C0853579F493D0E82EFF24E8
:1078A00090D0082F10E0102F00270E291F29000F5D
:1078B000111FB0D068016FC0863521F484E0B2D0CA
:1078C00080E0DECF843609F040C07BD07AD0082F2C
:1078D00078D080E0C81680E7D80618F4F601B7BE65
:1078E000E895C0E0D1E06DD089930C17E1F7F0E0A6
:1078F000CF16F0E7DF0618F0F601B7BEE8958AD09C
:1079000007B600FCFDCFA601A0E0B1E02C9130E06D
:1079100011968C91119790E0982F8827822B932BAA
:107920001296FA010C0187BEE89511244E5F5F4F55
:10793000F1E0A038BF0751F7F601A7BEE89507B6FA
:1079400000FCFDCF97BEE89526C08437B1F439D04E
:1079500038D0F82E36D05ED0F601EF2C8F010F5FB5
:107960001F4F84911BD0EA94F801C1F70894C11C01
:10797000D11CFA94CF0CD11C0EC0853739F44AD0F3
:107980008EE10CD085E90AD086E17ACF813511F4F9
:1079900088E00CD03FD080E101D065CF982F809156
:1079A000C00085FFFCCF9093C6000895E0E6F0E0AC
:1079B00098E190838083089580E0F8DFEE27FF2729
:1079C0000994EF92FF920F931F934E9AEE24FF2497
:1079D00087010FC00894E11CF11C011D111D81E2FB
:1079E000E81681EAF80687E0080780E0180708F043
:1079F000E3DF8091C00087FFEDCF8091C00084FD60
:107A000001C0A8958091C6004E9A1F910F91FF90DA
:107A1000EF900895D6DF803219F088E0C7DFFFCFFE
:107A200084E1BCCF1F93182FCCDF1150E9F7F2DFB0
:047A30001F91089505
:027FFE00040479
:040000030000780081
:00000001FF
