:100000000C9498000C94C0000C94C0000C94C00098
:100010000C94C0000C94C0000C94C0000C94C00060
:100020000C94C0000C94C0000C94C0000C94C00050
:100030000C94C0000C94C0000C94C0000C94C00040
:100040000C949D020C94C0000C940D030C94E702D8
:100050000C94C0000C94C0000C94C0000C94C00020
:100060000C94C0000C94C0000C943F030C943F030C
:100070000C943F030C943F030C943F030C943F03F8
:100080000C943F030C943F030C943F030C943F03E8
:100090000C943F030C943F030C943F030C943F03D8
:1000A0000C943F030C943F030C943F030C943F03C8
:1000B0000C943F03E400E700DA00DE0008010801C9
:1000C000EB00EF00F500F9000801FF00030100005C
:1000D0000000240027002A002D0000000000250059
:1000E00028002B002E00040404040404040402026B
:1000F00002020202030303030303050505050102CF
:1001000004081020408001020408102001020408A5
:10011000102004080102090C0A0800020100000373
:1001200004070000000000000000000000000F04B1
:1001300011241FBECFEFD8E0DEBFCDBF11E0A0E09D
:10014000B1E0E2E9F8E002C005900D92A631B107F6
:10015000D9F721E0A6E1B1E001C01D92AC3BB207A6
:10016000E1F710E0C8E9D0E004C02197FE010E9449
:100170003C04C739D107C9F70E9441030C944704D6
:100180000C940000ECE1F1E04491E4E0F1E0249112
:10019000ECEEF0E09491992309F44EC04423C1F1B0
:1001A00050E0FA013197ED30F10590F5E65AFF4F36
:1001B0000C943C04309180003F7703C03091800064
:1001C0003F7D3093800024C034B53F7702C034B502
:1001D0003F7D34BD1DC03091B0003F7703C03091EA
:1001E000B0003F7D3093B00013C0309190003F7756
:1001F00003C0309190003F7D3093900009C0309152
:10020000A0003F7703C03091A0003F7D3093A00055
:10021000E92FF0E0EE0FFF1FE652FF4FA591B491DA
:100220009FB7F894811104C08C912095282302C0B7
:10023000EC912E2B2C939FBF08953FB7F89480919B
:10024000B8019091B901A091BA01B091BB0126B556
:10025000A89B05C02F3F19F00196A11DB11D3FBFFE
:10026000BA2FA92F982F8827820F911DA11DB11D8C
:10027000BC01CD0143E0660F771F881F991F4A9587
:10028000D1F708958F929F92AF92BF92CF92DF9253
:10029000EF92FF920E941D014B015C0188EEC82E77
:1002A00083E0D82EE12CF12C0E941D01DC01CB0152
:1002B00088199909AA09BB09883E9340A105B1058F
:1002C00098F321E0C21AD108E108F10888EE880EFF
:1002D00083E0981EA11CB11CC114D104E104F104F7
:1002E00019F7FF90EF90DF90CF90BF90AF909F9065
:1002F0008F900895CF92DF92EF92FF920F931F930A
:10030000CF93DF936C017A018B01C0E0D0E0CE1572
:10031000DF0581F0D8016D918D01D601ED91FC9141
:100320000190F081E02DC6010995892B11F02196ED
:10033000EECF7E01C701DF91CF911F910F91FF900A
:10034000EF90DF90CF900895089580E090E00895B9
:10035000FC01538D448D252F30E0842F90E0821BCB
:10036000930B541710F0CF96089501970895FC0150
:10037000918D828D981761F0828DDF01A80FB11DDC
:100380005D968C91928D9F5F9F73928F90E0089500
:100390008FEF9FEF0895FC01918D828D981731F0BA
:1003A000828DE80FF11D858D90E008958FEF9FEF0E
:1003B0000895FC01918D228D892F90E0805C9F4FE4
:1003C000821B91098F739927089586E191E00E941D
:1003D000D90121E0892B09F420E0822F0895FC0146
:1003E000848DDF01A80FB11DA35ABF4F2C91848DBE
:1003F00090E001968F739927848FA689B7892C93F3
:10040000A089B1898C91837080648C93938D848D45
:10041000981306C00288F389E02D80818F7D808348
:100420000895EF92FF920F931F93CF93DF93EC0108
:1004300081E0888F9B8D8C8D981305C0E889F989A0
:10044000808185FD26C0F62E0B8D10E00F5F1F4FBB
:100450000F731127E02E8C8DE8120CC00FB607FC2D
:10046000FACFE889F989808185FFF5CFCE010E9416
:10047000EF01F1CF8B8DFE01E80FF11DE35AFF4F25
:10048000F0829FB7F8940B8FEA89FB8980818062A4
:100490000AC09FB7F894EE89FF896083E889F989DB
:1004A00080818370806480839FBF81E090E0DF91D2
:1004B000CF911F910F91FF90EF900895CF93DF930D
:1004C000EC01888D8823C9F0EA89FB89808185FD4C
:1004D00005C0A889B9898C9186FD0FC00FB607FCAD
:1004E000F5CF808185FFF2CFA889B9898C9185FFEE
:1004F000EDCFCE010E94EF01E7CFDF91CF910895BC
:1005000080E090E0892B21F00E94E50181110DC06F
:1005100080E090E0892B71F080E090E0892B51F031
:100520000E940000811104C008950E940000F0CFD5
:100530000C94000008950E9442041F920F920FB67F
:100540000F9211242F933F938F939F93AF93BF9359
:100550008091B4019091B501A091B601B091B7011D
:100560003091B30126E0230F2D3720F40296A11D10
:10057000B11D05C029E8230F0396A11DB11D2093CD
:10058000B3018093B4019093B501A093B601B093E9
:10059000B7018091B8019091B901A091BA01B091D1
:1005A000BB010196A11DB11D8093B8019093B901C3
:1005B000A093BA01B093BB01BF91AF919F918F916E
:1005C0003F912F910F900FBE0F901F9018951F9283
:1005D0000F920FB60F9211242F933F934F935F9377
:1005E0006F937F938F939F93AF93BF93EF93FF93FB
:1005F00086E191E00E94EF01FF91EF91BF91AF91F1
:100600009F918F917F916F915F914F913F912F912A
:100610000F900FBE0F901F9018951F920F920FB65C
:100620000F9211242F938F939F93EF93FF93E09159
:100630002601F09127018081E0912C01F0912D019C
:1006400082FD12C0908180912F018F5F8F73209166
:100650003001821751F0E0912F01F0E0EA5EFE4F89
:10066000958F80932F0101C08081FF91EF919F9121
:100670008F912F910F900FBE0F901F9018950C9493
:10068000C000789484B5826084BD84B5816084BDE7
:1006900085B5826085BD85B5816085BD80916E0020
:1006A000816080936E001092810080918100826051
:1006B000809381008091810081608093810080918E
:1006C00080008160809380008091B100846080937D
:1006D000B1008091B00081608093B0008091910062
:1006E000826080939100809191008160809391005D
:1006F000809190008160809390008091A100826041
:100700008093A1008091A10081608093A1008091DD
:10071000A00081608093A00080917A008460809323
:100720007A0080917A00826080937A0080917A00CA
:100730008E7F80937A0080917A00806880937A001F
:100740001092C100E4E0F1E02491ECEEF0E084913D
:10075000882399F090E0880F991FFC01E253FF4F26
:10076000A591B491FC01E652FF4F859194918FB70A
:10077000F894EC91E22BEC938FBFE0912601F0917D
:10078000270182E08083E0912201F0912301108211
:10079000E0912401F091250188E0808310922E01E0
:1007A000E0912A01F0912B0186E08083E0912801FD
:1007B000F0912901808180618083E0912801F0918E
:1007C0002901808188608083E0912801F0912901CE
:1007D000808180688083E0912801F09129018081E7
:1007E0008F7D808341E050E062E171E086E191E03D
:1007F0000E947A0181E00E94C2000E94420180E0D2
:100800000E94C2000E94420141E050E064E171E0B8
:1008100086E191E00E947A010E948002EBCFE6E13E
:10082000F1E01382128288EE93E0A0E0B0E08483CE
:100830009583A683B78384E091E09183808385ECE0
:1008400090E09587848784EC90E09787868780EC9A
:1008500090E0918B808B81EC90E0938B828B82EC8B
:1008600090E0958B848B86EC90E0978B868B118E35
:10087000128E138E148E0895EE0FFF1F0590F491C3
:10088000E02D099481E090E0F8940C944704F894EA
:02089000FFCF98
:100892000000000011027A01A8015E02D901B7012D
:0608A200CB0156002B0003
:107800000C94343C0C94513C0C94513C0C94513CE1
:107810000C94513C0C94513C0C94513C0C94513CB4
:107820000C94513C0C94513C0C94513C0C94513CA4
:107830000C94513C0C94513C0C94513C0C94513C94
:107840000C94513C0C94513C0C94513C0C94513C84
:107850000C94513C0C94513C0C94513C0C94513C74
:107860000C94513C0C94513C11241FBECFEFD8E036
:10787000DEBFCDBF11E0A0E0B1E0E4E2FFE702C06F
:1078800005900D92A230B107D9F712E0A2E0B1E065
:1078900001C01D92AD30B107E1F70E942E3D0C945E
:1078A000903F0C94003C982F9595959595959595BE
:1078B000905D8F708A301CF0282F295A02C0282F23
:1078C000205D289A8091C00085FFFCCF9093C60070
:1078D000289A8091C00085FFFCCF2093C6000895B0
:1078E000982F289A8091C00085FFFCCF9093C60006
:1078F0000895EF92FF920F931F93EE24FF248701C8
:1079000013C00894E11CF11C011D111D81E2E81651
:1079100081EAF80687E0080780E0180728F0E09180
:107920000401F091050109958091C00087FFE9CF1E
:107930008091C6001F910F91FF90EF9008950E94D3
:10794000793C982F289A8091C00085FFFCCF9093B6
:10795000C600913614F0975503C090330CF0905345
:10796000892F08951F930E949F3C182F0E949F3CCF
:107970001295107F810F1F9108951F93182F03C038
:107980000E94793C11501123D9F71F9108951F933C
:10799000182F0E94793C8032C1F4289A8091C0004F
:1079A00085FFFCCF84E18093C600289A8091C000B7
:1079B00085FFFCCF1093C600289A8091C00085FFF8
:1079C000FCCF80E18093C6000CC0809103018F5FE3
:1079D00080930301853029F4E0910401F0910501C1
:1079E00009951F9108950E94793C803289F4289A64
:1079F0008091C00085FFFCCF84E18093C600289A67
:107A00008091C00085FFFCCF80E18093C60008957F
:107A1000809103018F5F80930301853029F4E09109
:107A20000401F09105010995089548EC50E013C058
:107A30005E9A28EE33E0FA013197F1F72150304099
:107A4000D1F75E9828EE33E0FA013197F1F7215033
:107A50003040D1F78150882359F708953F924F92D3
:107A60005F926F927F928F929F92AF92BF92CF92CE
:107A7000DF92EF92FF920F931F93CF93DF9300005B
:107A800082E08093C00080E18093C4001092C50022
:107A900088E18093C10086E08093C2005098589A94
:107AA000569A209A2898579A5F9A81E00E94153D2D
:107AB00024E1E22E9EE1992E85E9882E0FE0702EBA
:107AC00010E1F12E66246394B1E45B2EA6E54A2E04
:107AD000F2E53F2EE0E2DE2E79E4C72E63E5B62E16
:107AE00050E5A52E0E94793C803309F469C08133AA
:107AF00009F043C00E94793C803209F003C2289A01
:107B00008091C00085FFFCCFE092C600289A80914A
:107B1000C00085FFFCCF5092C600289A8091C0001B
:107B200085FFFCCF4092C600289A8091C00085FF57
:107B3000FCCF3092C600289A8091C00085FFFCCF10
:107B4000D092C600289A8091C00085FFFCCFC092D9
:107B5000C600289A8091C00085FFFCCFB092C60075
:107B6000289A8091C00085FFFCCFA092C600289A79
:107B70008091C00085FFFCCFBCC1803439F40E94E5
:107B8000793C8638E8F00E94793C1AC0813499F437
:107B90000E94793C803811F482E0B1C1813811F43F
:107BA00081E0ADC1823811F480E1A9C1883909F0C2
:107BB000A5C183E0A4C1823431F484E10E94BD3CBC
:107BC0000E94F33C8FCF853411F485E0F7CF8035E8
:107BD000B9F38235A9F3813599F3853549F40E94CB
:107BE000793C809306010E94793C80930701E8CF9D
:107BF0008635C9F40E94793C803389F40E94793C2F
:107C00000E94793C182F0E94793C112311F48EE1D7
:107C100076C1113011F485E972C18FE070C183E043
:107C20000E94BD3C6BC1843609F0D4C00E94793CEF
:107C3000809309020E94793C8093080280910C0293
:107C40008E7F80930C020E94793C853429F48091C8
:107C50000C02816080930C0200E010E008C00E94DA
:107C6000793CF801E85FFE4F80830F5F1F4F8091E2
:107C70000802909109020817190788F30E94793CBD
:107C8000803209F03FC180910C0280FF2BC020910F
:107C9000060130910701220F331F30930701209313
:107CA0000601609108027091090240E050E010C0A6
:107CB000F999FECFCA01820F931F92BD81BDFA01CF
:107CC000E85FFE4F808180BDFA9AF99A4F5F5F4F5F
:107CD0004617570768F3260F371F30930701209385
:107CE00006016BC0809107018823880F880B8621CD
:107CF00080930B028091060190910701880F991FD4
:107D000090930701809306018091080280FF09C0CB
:107D10008091080290910902019690930902809344
:107D20000802F894F999FECF1127E0910601F0912D
:107D30000701C8E0D1E0809108029091090210305B
:107D400091F40091570001700130D9F303E00093E2
:107D50005700E8950091570001700130D9F301E117
:107D600000935700E8950990199000915700017011
:107D70000130D9F301E000935700E89513951034D2
:107D800098F011270091570001700130D9F305E0F8
:107D900000935700E8950091570001700130D9F326
:107DA00001E100935700E8953296029709F0C7CF9A
:107DB000103011F00296E5CF1124289A8091C0006E
:107DC00085FFFCCFE092C600289A8091C00085FF15
:107DD000FCCF8FC0843709F065C00E94793C809346
:107DE00009020E94793C80930802809106019091DB
:107DF0000701880F991F90930701809306010E9445
:107E0000793C90910C02853411F4916001C09E7F01
:107E100090930C020E94793C803209F063CE289A3C
:107E20008091C00085FFFCCFE092C60060910802FF
:107E30007091090280910C02B82FB170A82FA27026
:107E40002091060130910701F90140E050E01BC08C
:107E5000BB2361F0F999FECFF2BDE1BDF89A90B570
:107E6000289A8091C00085FFFCCF08C0AA2341F466
:107E70009491289A8091C00085FFFCCF9093C60012
:107E80004F5F5F4F31964617570710F3260F371F86
:107E90003093070120930601289A8091C00085FF46
:107EA000FCCF27C0853741F50E94793C803251F5DF
:107EB000289A8091C00085FFFCCFE092C600289AE6
:107EC0008091C00085FFFCCF9092C600289A8091D7
:107ED000C00085FFFCCF8092C600289A8091C00028
:107EE00085FFFCCF7092C600289A8091C00085FF64
:107EF000FCCFF092C600F6CD863721F480E00E94D8
:107F0000C73CF0CD809103018F5F809303018530E2
:107F100009F0E8CDE0910401F09105010995E2CD69
:047F2000F894FFCF03
:027F24008000DB
:040000030000780081
:00000001FF
