:10780000112484B714BE85E080938100589A82E0E9
:107810008093C00088E18093C10086E08093C2001D
:1078200080E18093C400209A289A579A5F9A8EE04C
:10783000BDD0569A86E028E13EEF91E03093850076
:107840002093840096BBB09BFECF4E9AA8958150A2
:10785000A9F7CC24DD2488248394B5E0AB2EA1E1E4
:107860009A2EF3E0BF2EADD0813461F4AAD0082F58
:10787000D1D0023811F0013811F484E001C083E066
:107880008DD089C0823411F484E103C0853419F4A9
:1078900085E0C8D080C0853579F493D0E82EFF24E8
:1078A00090D0082F10E0102F00270E291F29000F5D
:1078B000111FB0D068016FC0863521F484E0B2D0CA
:1078C00080E0DECF843609F040C07BD07AD0082F2C
:1078D00078D080E0C81680E7D80618F4F601B7BE65
:1078E000E895C0E0D1E06DD089930C17E1F7F0E0A6
:1078F000CF16F0E7DF0618F0F601B7BEE8958AD09C
:1079000007B600FCFDCFA601A0E0B1E02C9130E06D
:1079100011968C91119790E0982F8827822B932BAA
:107920001296FA010C0187BEE89511244E5F5F4F55
:10793000F1E0A038BF0751F7F601A7BEE89507B6FA
:1079400000FCFDCF97BEE89526C08437B1F439D04E
:1079500038D0F82E36D05ED0F601EF2C8F010F5FB5
:107960001F4F84911BD0EA94F801C1F70894C11C01
:10797000D11CFA94CF0CD11C0EC0853739F44AD0F3
:107980008EE10CD085E90AD086E17ACF813511F4F9
:1079900088E00CD03FD080E101D065CF982F809156
:1079A000C00085FFFCCF9093C6000895E0E6F0E0AC
:1079B00098E190838083089580E0F8DFEE27FF2729
:1079C0000994EF92FF920F931F934E9AEE24FF2497
:1079D00087010FC00894E11CF11C011D111D81E2FB
:1079E000E81681EAF80687E0080780E0180708F043
:1079F000E3DF8091C00087FFEDCF8091C00084FD60
:107A000001C0A8958091C6004E9A1F910F91FF90DA
:107A1000EF900895D6DF803219F088E0C7DFFFCFFE
:107A200084E1BCCF1F93182FCCDF1150E9F7F2DFB0
:047A30001F91089505
:027FFE00040479
:040000030000780081
:00000001FF
