:107800000C94343C0C94513C0C94513C0C94513CE1
:107810000C94513C0C94513C0C94513C0C94513CB4
:107820000C94513C0C94513C0C94513C0C94513CA4
:107830000C94513C0C94513C0C94513C0C94513C94
:107840000C94513C0C94513C0C94513C0C94513C84
:107850000C94513C0C94513C0C94513C0C94513C74
:107860000C94513C0C94513C11241FBECFEFD8E036
:10787000DEBFCDBF11E0A0E0B1E0E0E7FFE702C06E
:1078800005900D92A230B107D9F712E0A2E0B1E065
:1078900001C01D92AD30B107E1F70E94393D0C9453
:1078A000B63F0C94003C982F959595959595959598
:1078B000905D8F708A301CF0282F295A02C0282F23
:1078C000205D289A8091C00085FFFCCF9093C60070
:1078D000289A8091C00085FFFCCF2093C6000895B0
:1078E000982F289A8091C00085FFFCCF9093C60006
:1078F0000895DF92EF92FF920F931F93EE24FF24DF
:10790000870184E5D82E1AC00894E11CF11C011DE2
:10791000111D81E2E81681EAF80687E0080780E099
:10792000180760F0289A8091C00085FFFCCFD092A4
:10793000C600E0910401F091050109958091C00015
:1079400087FFE2CF8091C6001F910F91FF90EF90CB
:10795000DF9008950E94793C982F289A8091C0006A
:1079600085FFFCCF9093C600913614F0975503C065
:1079700090330CF09053892F08951F930E94AA3CD6
:10798000182F0E94AA3C1295107F810F1F91089515
:107990001F93182F03C00E94793C11501123D9F76F
:1079A0001F9108951F93182F0E94793C8032C1F4D3
:1079B000289A8091C00085FFFCCF84E18093C600A7
:1079C000289A8091C00085FFFCCF1093C600289AAA
:1079D0008091C00085FFFCCF80E18093C6000CC081
:1079E000809103018F5F80930301853029F4E0913A
:1079F0000401F091050109951F9108950E94793CB9
:107A0000803289F4289A8091C00085FFFCCF84E100
:107A10008093C600289A8091C00085FFFCCF80E14A
:107A20008093C6000895809103018F5F80930301C6
:107A3000853029F4E0910401F0910501099508953C
:107A400048EC50E013C05E9A28EE33E0FA0131971B
:107A5000F1F721503040D1F75E9828EE33E0FA017B
:107A60003197F1F721503040D1F78150882359F7F1
:107A700008952F923F924F925F926F927F928F92D2
:107A80009F92AF92BF92CF92DF92EF92FF920F93AD
:107A90001F93CF93DF93000082E08093C00080E1CA
:107AA0008093C4001092C50088E18093C10086E0F5
:107AB0008093C2005098589A569A209A2898579ABC
:107AC0005F9A289A8091C00085FFFCCF83E2809363
:107AD000C60081E00E94203D35E4232E24E1E22E01
:107AE0009EE1D92E85E9C82E0FE0B02E10E1F12ECF
:107AF000AA24A394B1E49B2EA6E58A2EF2E57F2E5C
:107B0000E0E26E2E79E4572E63E5462E50E5352EE1
:107B10000E94793C803309F469C0813309F043C085
:107B20000E94793C803209F0FDC1289A8091C00002
:107B300085FFFCCFE092C600289A8091C00085FFA7
:107B4000FCCF9092C600289A8091C00085FFFCCFA0
:107B50008092C600289A8091C00085FFFCCF709269
:107B6000C600289A8091C00085FFFCCF6092C600B5
:107B7000289A8091C00085FFFCCF5092C600289AB9
:107B80008091C00085FFFCCF4092C600289A80916A
:107B9000C00085FFFCCF3092C600289A8091C000BB
:107BA00085FFFCCFBCC1803439F40E94793C863813
:107BB000E8F00E94793C1AC0813499F40E94793C23
:107BC000803811F482E0BAC1813811F481E0B6C185
:107BD000823811F480E1B2C1883909F0AEC183E086
:107BE000ADC1823431F484E10E94C83C0E94FE3C65
:107BF0008FCF853411F485E0F7CF8035B9F3823526
:107C0000A9F3813599F3853549F40E94793C809335
:107C100006010E94793C80930701E8CF8635C9F4BC
:107C20000E94793C803389F40E94793C0E94793C1F
:107C3000182F0E94793C112311F48EE17FC111307D
:107C400011F485E97BC18FE079C183E00E94C83CD3
:107C500074C1843609F0D4C00E94793C8093090233
:107C60000E94793C8093080280910C028E7F809361
:107C70000C020E94793C853429F480910C028160C9
:107C800080930C0200E010E008C00E94793CF801EB
:107C9000E85FFE4F80830F5F1F4F80910802909135
:107CA00009020817190788F30E94793C803209F00D
:107CB00039C180910C0280FF2BC0209106013091C8
:107CC0000701220F331F30930701209306016091B3
:107CD00008027091090240E050E010C0F999FECF0F
:107CE000CA01820F931F92BD81BDFA01E85FFE4F6A
:107CF000808180BDFA9AF99A4F5F5F4F4617570708
:107D000068F3260F371F30930701209306016BC0DD
:107D1000809107018823880F880B8A2180930B02AA
:107D20008091060190910701880F991F9093070198
:107D3000809306018091080280FF09C080910802AB
:107D40009091090201969093090280930802F89499
:107D5000F999FECF1127E0910601F0910701C8E0E3
:107D6000D1E08091080290910902103091F40091C5
:107D7000570001700130D9F303E000935700E895F4
:107D80000091570001700130D9F301E100935700D1
:107D9000E895099019900091570001700130D9F3CE
:107DA00001E000935700E8951395103498F01127DF
:107DB0000091570001700130D9F305E0009357009E
:107DC000E8950091570001700130D9F301E100936B
:107DD0005700E8953296029709F0C7CF103011F09E
:107DE0000296E5CF1124289A8091C00085FFFCCF30
:107DF000E092C600289A8091C00085FFFCCF8FC01A
:107E0000843709F065C00E94793C809309020E9482
:107E1000793C809308028091060190910701880FB8
:107E2000991F90930701809306010E94793C9091DD
:107E30000C02853411F4916001C09E7F90930C0276
:107E40000E94793C803209F063CE289A8091C0006C
:107E500085FFFCCFE092C600609108027091090294
:107E600080910C02B82FB170A82FA270209106014A
:107E700030910701F90140E050E01BC0BB2361F0E5
:107E8000F999FECFF2BDE1BDF89A90B5289A80919C
:107E9000C00085FFFCCF08C0AA2341F49491289A22
:107EA0008091C00085FFFCCF9093C6004F5F5F4F6D
:107EB00031964617570710F3260F371F30930701E7
:107EC00020930601289A8091C00085FFFCCF27C02F
:107ED000853789F50E94793C803221F5289A809176
:107EE000C00085FFFCCFE092C600289A8091C000B8
:107EF00085FFFCCFD092C600289A8091C00085FFF4
:107F0000FCCFC092C600289A8091C00085FFFCCFAC
:107F1000B092C600289A8091C00085FFFCCFF092F5
:107F2000C600F6CD809103018F5F809303018530F9
:107F300009F0EECD15C0863721F480E00E94D23CD6
:107F4000E7CD809103018F5F80930301853009F0B5
:107F5000DFCD289A8091C00085FFFCCF2092C6001B
:107F6000E0910401F09105010995D2CDF894FFCF7D
:027F700080008F
:040000030000780081
:00000001FF
